:020000040020DA
:10000000E03200208D022000DB912000D9912000F9
:10001000D9912000D9912000D99120000000000042
:10002000000000000000000000000000D991200046
:10003000D991200000000000D99120007992200081
:100040009B922000A1922000A7922000AD92200058
:10005000000000007F92200085922000D9912000AE
:10006000D991200000000000000000000000000006
:100070000000000000000000D991200000000000F6
:100080000000000000000000D9912000D99120005C
:10009000D9912000D9912000D9912000D991200038
:1000A000D9912000D9912000D9912000D991200028
:1000B000D9912000D9912000D9912000D991200018
:1000C000D9912000D9912000D9912000D991200008
:1000D000D991200000000000000000000000000096
:1000E0000000000000000000000000000000000010
:1000F0000000000000000000311620004116200022
:1001000000000000000000000000000000000000EF
:1001100000000000000000000000000000000000DF
:1001200000000000000000000000000000000000CF
:1001300000000000000000000000000000000000BF
:1001400000000000000000000000000000000000AF
:10015000000000000000000000000000000000009F
:10016000000000000000000000000000000000008F
:10017000000000000000000000000000000000007F
:10018000000000000000000000000000000000006F
:10019000000000000000000000000000000000005F
:1001A000000000000000000000000000000000004F
:1001B000000000000000000000000000000000003F
:1001C000000000000000000000000000000000002F
:1001D000000000000000000000000000000000001F
:1001E000000000000000000000000000000000000F
:1001F00000000000000000000000000000000000FF
:1002000000000000000000000000000000000000EE
:1002100000000000000000000000000000000000DE
:1002200000000000000000000000000000000000CE
:1002300000000000000000000000000000000000BE
:1002400000000000000000000000000000000000AE
:10025000000000000000000000000000000000009E
:10026000000000000000000000000000000000008E
:10027000D9912000251520003D152000190E2000E1
:10028000A117200035092000D991200008B5094B9D
:10029000FF221A600848094A4824E3690849121AEB
:1002A00098470848084AA3690021121A984700F0A5
:1002B00037F8FEE7B4200D40400000200402002083
:1002C00040A9200008020020DF2A002008B500F025
:1002D00019F8024B00221A7008BD00BF901C0020C4
:1002E000024A13781843107000F014B8901C0020D4
:1002F000034A137823EA0000107000F00BB800BF27
:10030000901C0020024A136843F00F0313607047EB
:1003100000B40D40014B1860704700BF3CB00D4069
:10032000F7B500F065FC00F009FD00F0A3FC00F05B
:100330005FFA01F023FA09F067F800F0F7FCFFF725
:10034000C5FF022008F04CFF02F006F800F03CFC6C
:1003500000F0E6F9002000F04BFB4649002000F0D9
:100360001DFC02F065F908F090FF042008F038FF4A
:10037000414808F0BFFF414808F0BCFF404801F089
:100380005BFA404B404C186808F0B4FF3F4801F05E
:1003900053FA3F4B0025186808F0ACFF3D4801F0C8
:1003A0004BFA3D4B186808F0A5FF002002F062F9F7
:1003B00001F0D8F83948002102F074F801F01AFE73
:1003C0006846082101F0FEF99DF807309DF8067097
:1003D00043EA07276B4603CB20606160304801F099
:1003E0002BFA615D2F48013501F026FA072D264EC4
:1003F000F7D12D4DF1792D4801F01EFAEC6A4AF63D
:10040000CD310220A04739460320A0471A21012000
:10041000A04769466B6B08220B20984700F01EFD31
:1004200000F03AFD07F03EFB214A33681360736821
:10043000536007F05DF81F48002102F033F800F028
:100440009FFC00211C4802F02DF808F0ACFF1B486F
:1004500008F09FFF00F0BEFB082008F0C1FE00F08E
:10046000BFFB01F091FF10F0FF0FF8D101F01EF972
:10047000F5E700BFDD25200008A7200022A7200007
:100480003AA720009CA62000D72A002041A72000E0
:10049000A8A6200048A72000D0A620009C0000208D
:1004A0004FA720006DA72000D4A5200073A720002F
:1004B000D4200020380100204000002000A72000A8
:1004C00070B505880446772D30D07E2D3FD0002DA5
:1004D0004DD101F039FF294B1870294B1D601D4685
:1004E0002B68284A264E52F823204AB1264800217C
:1004F000C154936880209847336801333360EFE735
:10050000224A1370772320E01F4AD256002A12DBBA
:100510001B4A136801331360194B1C4A1B6812787D
:100520009342F1DB1A4B1B68002BEBD0184A0023D7
:100530001360134AEFE7114A00201178114A52F86C
:10054000232001F083FF30B97E23238013E00B4B7F
:100550001B788B420FD10A4B0B491A688B5C03F056
:100560007F038B540A4A136801331360D0E70023DA
:100570000380032070BD012070BD00BFC22A00208F
:100580001802002050000020C32A0020911C0020E7
:100590001C020020094B1A780023934204DA084910
:1005A00051F82310814207D106490748CA5C62F01E
:1005B0007F02CA5401F08EBF0133EEE7911C002088
:1005C00050000020C32A00204000002008B5094840
:1005D000082108F02FFE03210422002000F0BCFBBC
:1005E000002000F023FB04480021032200F056FB0A
:1005F000012008BD00900D40BD06200008B5094847
:10060000102108F017FE04210A46022000F0A4FB86
:10061000022000F00BFB04480221042200F03EFB04
:10062000012008BD00B00D40BD06200008B50948F6
:10063000202108F0FFFD05210422022000F08CFBA0
:10064000022000F0F3FA04480221052200F026FB04
:10065000012008BD00B00D40BD06200008B50948C6
:10066000402108F0E7FD06210422022000F074FB7F
:10067000022000F0DBFA04480221062200F00EFB03
:10068000012008BD00B00D40BD06200008B5094896
:10069000802108F0CFFD07210422022000F05CFB3E
:1006A000022000F0C3FA04480221072200F0F6FA03
:1006B000012008BD00B00D40BD06200038B505463C
:1006C00011480C4608F0B4FEE8B10F48102108F0BC
:1006D0009DFE1DB9032C16D10C4810E0022D12D13D
:1006E000042C01D10A480AE0052C01D1094806E092
:1006F000062C01D1084802E0072C04D10748BDE8C8
:100700003840FFF747BF38BD200200201CA520005D
:100710003CA520004CA520002CA520005CA52000B5
:100720000148002108F072BE2002002010B5074CDD
:10073000FF2323604FF4FA6000F096F80021302286
:10074000062000F025FB0023236010BD00920D4021
:10075000802870B51ED1104E104D3368002423F050
:10076000800333602B68204643F080032B600C4BE2
:1007700007211C60224600F0EFFA3368204623F080
:10078000400333602B68062123F040032B600122D5
:1007900000F0E2FA002070BD20940D4000940D405E
:1007A00000920D40F8B500F083F80F4B0024D3E918
:1007B00000673A46B04238BF7A1C15460443C3E985
:1007C0000045DFF828E0DEE90001821B61EB07034A
:1007D00012196B41CEE9002301F020FD18B1BDE8EC
:1007E000F84001F0ABBCF8BD080200201002002068
:1007F0000F4B104A1A6053F8042C42F0050243F8DC
:10080000042C53F8042C42F0020243F8042C0A4A48
:10081000136843F001031360084B00221A6004229E
:1008200043F80C2C012243F8082C0F22DA6270479F
:1008300014E000E047E8010008200D400C000340F0
:10084000034BD3E90023100A40EA0360704700BF5E
:1008500008020020034BD3E90023D00B40EA4340B9
:10086000704700BF10020020054B18601C3B1A683F
:1008700042F001021A601A68D207FCD4704700BF28
:100880002800034010B5064C236823F001032360C1
:10089000FFF788FF236843F00103236010BD00BF0A
:1008A00010E000E0014B1868704700BF28020020EC
:1008B000074B084A196804331B681268120442EA9D
:1008C0000323054A0B43106843EA0060704700BFEA
:1008D00040500D4048500D404C500D4010B504465E
:1008E000114B1B68DB07FBD508F0D3FCFFF7E0FFDB
:1008F000231A062BD8BFC41D0C4B220E1A60C4F35A
:10090000074243F8042CC4F3072243F8082CE2B250
:1009100043F80C2C08F0B9FC054B91201C60BDE895
:10092000104000F083B900BF50500D404C500D40B6
:100930002802002008B500F09FFE064B00229120FF
:100940001A6000F08BF9912000F07CF9BDE80840B6
:1009500001F0DEBD280200200023084A1068084A82
:100960009958084205D01A44D268906910F0800066
:1009700003D02C33582BF0D10120704728200D4094
:100980007CA52000174A2C2303FB002370B5DC68EC
:100990004FF6BF73256C06466364134808F0AAFC43
:1009A000ABB213F050020DD0A369DB0609D40F4B94
:1009B00053F826301BB12068C0B29847F4E723688B
:1009C000F2E770BD13F4D06F0BD04FF44073236384
:1009D000FF236360E36AE262E362236B43F0010397
:1009E000236370BD7CA520008CA720002C02002072
:1009F0002DE9F04F012885B0064600F2BF802C2477
:100A00004443604B1D1995F920A005F12007BAF168
:100A1000000F9946C0F2B28095F92230002BC0F247
:100A2000AD80594800F09AFE584A59F804301168D0
:100A3000EC680B43136051686B6895F921B00B4368
:100A400053609168AB6895F822800B439360002354
:100A5000C4F8C83F2B690BEBCA021A6095F8233023
:100A60005FFA88FC01939DF80430604619462A7DA0
:100A7000CDF80CC0029300F079F9029BDDF80CC0B0
:100A800019466046082200F067F94FFA88F8404995
:100A90004FEA08389DF9042058F80100012303FAB1
:100AA00002F2024348F801204FEA0A3A5AF80100DC
:100AB00003FA0BF202434AF801205022A263A26B10
:100AC00095F8240042F4D062A263022262634FF4DC
:100AD00040722263AA696262EA69A2627022E262DB
:100AE00042B2002A0C4614DB95F92510294D41EA43
:100AF000C20129607979120315594FB2BB402B43CB
:100B00001351002200F028F9234A136843F40043EC
:100B100013602C2303FB069393F8265020336FB207
:100B2000002F1CDB93F807A0EDB25FFA8AF8284685
:100B3000414601223F0300F019F94FFA8AFA3A5967
:100B4000012303FA0AF313433B5108222846414686
:100B500000F002F9104A136843F4804313602C2319
:100B600003FB0696F26896F82800136B43F0010326
:100B7000136305B0BDE8F04F00F058B805B0BDE80C
:100B8000F08F00BF7CA520005909200028200D40CF
:100B900020940D4004410D4030D0004001289CBFFE
:100BA000014B43F8201070472C020020012808D880
:100BB000044B2C2202FB0030C3689A699206FCD4D5
:100BC000196070477CA52000014B00221A60704715
:100BD00000500D40014B08221A60704700500D4034
:100BE000024BA0221A6050221A60704700500D403C
:100BF000074A084B1A60084B80321A60074B803254
:100C00001A60074B80321A60064B074A1A60704719
:100C100000E100E040020020340200203802002001
:100C20003C02002008ED00E000002000044B4109D8
:100C30001A6800F01F000123834042F821307047FA
:100C400040020020044B41091A6800F01F000123F4
:100C5000834042F82130704734020020044B4109A0
:100C60001A6800F01F000123834042F821307047CA
:100C70003C020020054A064B1A60064B1A68064BD8
:100C80001340B3F1807FF8D1704700BF010102012A
:100C900000200D4004200D4000000101024B02EB3A
:100CA000C10243F82200704744020020F8B507460D
:100CB0000E46094D002405EB411547FA04F3DB0706
:100CC000E1B204D555F824300BB1304698470134D1
:100CD000082CF2D1F8BD00BF440200202DE9F047F6
:100CE00080464FEA0837DFF8409007F1804505F568
:100CF000592500F0C1FCD5F8186457F809404FEAAF
:100D0000C80A24FA0AF446EA0400E4B2C0B2414632
:100D1000F6B204FA0AF4FFF7C9FFC5F81C6447F8F5
:100D20000940BDE8F08700BF18970D400248002138
:100D3000802208F003BA00BF44020020034A044B9B
:100D40001A60044B803A1A60704700BF80400D4023
:100D5000C8020020C4020020034B01EBC0011B6845
:100D600043F82120704700BFC8020020034B01EB6D
:100D7000C0011B6843F82120704700BFC402002057
:100D8000024A136843F030031360704700700D404F
:100D90000E2870B50BD1164B164E1C6844F0020598
:100DA0001D60356825F03F0343F001033360124EA8
:100DB000336823F0FF031A431143014331600F4BA3
:100DC0001B681B06FBD50E4B0E4A1B6812680E28CB
:100DD00003F0FC0343EA022308BF064A9BB204BFA8
:100DE0001560034A9BB208BF146018B270BD00BF03
:100DF00034000144F486084008700D4000700D4036
:100E00000C700D4010700D40024B1868B0FA80F065
:100E10004009704700B7084010B58F20064CFFF717
:100E20001DFF8F20FFF70EFF206818B101F052FB65
:100E30000023236010BD00BFCC020020064A1368C7
:100E400043F002031360536843F002035360936856
:100E500043F002039360704748200D4007B50C48EB
:100E600000F07CFCFFF7EAFF0A4B1A6842F002022E
:100E70001A6000220192019A0F2A02DC019A0132C3
:100E8000F8E71A6822F002021A6003B05DF804FB6A
:100E9000090E200054200D40064A136823F0020377
:100EA0001360536823F002035360936823F0020336
:100EB0009360704748200D40084B93F90020002AAA
:100EC00009DB074AED2111601160E32111601A78F6
:100ED00062F07F021A700120704700BF921C002050
:100EE00038880840094B1B689B07FBD4084BED2250
:100EF0001A601A60074A12680AB1EF221A60064A9D
:100F00000120137803F07F03137070474C8608406C
:100F1000388808402C860840921C002038B5A0F183
:100F20000B04E3B20F2B054613D80B4B1B6813F0D1
:100F30003F0302D0FFF7D6FF012304EB8404074AE6
:100F40000B3414600BB1FFF7B7FF054BE8B21D700F
:100F500000E0FF2040B238BD488608403C8608408B
:100F60000202002010B50B4B1B68990603D1FFF756
:100F7000A3FF012300E00023074A1268D207FBD534
:100F8000064A1468C4F300140BB1FFF7ABFF204608
:100F900010BD00BF48860840648608404C86084063
:100FA000044B186800F02200A0F120035842584179
:100FB000704700BF4C860840024B186800F04000A4
:100FC000704700BF4C86084038B50C4600296ED0EB
:100FD00010286ED8DFE800F0090F1A1C236D334487
:100FE000496D6D6D6D6062646900334B1B68003341
:100FF00018BF012356E0314B05221B6803F07F0325
:101000000B3B93FBF2F30B33DBB24BE02C4B00E0DA
:101010002C4B1A68043B1B6843EA022342E02A4B2C
:10102000002008601A68243302F001020A601B687D
:1010300013F0200337D042F002020A6038BD234B80
:101040001A680023D2B2224901EBC3000079904212
:1010500002D851F8333025E001330E2BF3D11FE0D5
:101060001C4B1B685BB2493B1CE01B4B1B68990681
:1010700003D1FFF721FF012300E00023174A126884
:10108000D207FBD5164A1568493DEDB20BB1FFF703
:1010900029FF6DB2256006E00B2303E01A2301E06F
:1010A0006FF017032360002038BD0723FAE7022002
:1010B00038BD012038BD00BF2C8608403C86084062
:1010C000CC850840D485084000860840408608400A
:1010D0000CA62000588608404886084064860840D0
:1010E0006086084038B505460C46134B1B689B07C5
:1010F000FBD4124B93F90030002B01DBFFF7DCFE31
:101100000F4BEE221A60691E1A60A21C43F8102CC5
:101110002144022000F03EFA013C0A492401214307
:10112000022000F049FA022000F050FA022000F0FC
:1011300065FA002038BD00BF4C860840921C002094
:101140003888084002C001C0F8B51F4B93F9003041
:10115000002B0DDBFFF7ACFB0446FFF7ADFEFFF7FE
:10116000A7FB6FF009031B1BC342F8D4012600E064
:101170000026FFF7F7FE18B3144C236899061FD416
:10118000134DE9232B60042723689A0707D4013FF6
:1011900017F0FF0703D00620FFF766FBF4E723688C
:1011A0009B0704D4EE232B6001242B6004E020680D
:1011B00010F00200FBD1044626B1FFF793FE01E0D8
:1011C0000220F8BD2046F8BD921C00204C86084045
:1011D00038880840044B1A6810B142F0010201E05F
:1011E00022F001021A6070470086084038B50C46AC
:1011F000072855D8DFE800F0040F1B1F26543B4F8B
:10120000012903D1FFF758FE002038BD002949D13C
:10121000FFF768FEF8E7A1F10B030F2B42D8C8B225
:10122000FFF77CFE431C0CBF0320002038BD8CB2AE
:10123000E2B21D4B02E08CB21C4BE2B2240A1A60EF
:101240005C60E1E731F003052CD101F00100FFF70C
:10125000C1FF174B14F002001A681BBF284642F06A
:10126000200222F020021A6008BF1A6038BD01F186
:1012700018031F2B16D80D230E49DA0051F833003E
:10128000844204DC8B181A790B4B1A60BCE713F10B
:10129000FF33F1D2B8E7CCB2084B49341C60B3E756
:1012A000012038BD022038BDC8850840D0850840DF
:1012B000248608400CA62000408608405886084036
:1012C0000B280DD1082A0DD161B1074B013953F814
:1012D000042D01F8012F054A9342F8D100207047F0
:1012E0000120704702207047C8850840A885084043
:1012F0000B280DD1082A0DD161B1074B083111F827
:10130000012D43F8042F054A9342F8D1002070477D
:101310000120704702207047A4850840C48508401A
:1013200070B52B4E336813F0400308D0294D2B685D
:10133000DCB21B0605D5284BED221A601A6000208E
:1013400070BD042CF7D9023C8C42F4DCE4B2032CCF
:101350001BD001190139032000F024F9631E1F4935
:101360001B010320194300F027F9032000F02EF998
:10137000032000F043F9032000F04CF90028FAD1D3
:1013800029682D682806D6D506E02B6803702B68DF
:1013900043702B688370F3E7493949B289B204205E
:1013A00006F056FB032005F07F0106F051FB336881
:1013B0005A060BD5064B1B681B0603D5084801F0DF
:1013C00089F803E0044BED221A601A60204670BDD4
:1013D0004C860840288808403888084002C0010C24
:1013E00074000020F8B52B4E357815F001054ED16C
:1013F000294B01241C605C609C60A3F59323A3F53A
:101400001473F8221A600922C3F890211522703350
:101410001A6003F59B230B2203F59E731A60A3F554
:101420009B23A3F5F07340221A601A687F2742F0CD
:1014300020021A60D52243F81C5CDF62DA61174B88
:101440001878FFF76BFD164A8D20136843F00403EC
:101450001360FFF7EBFB134B8E201F60FFF7E6FBDB
:10146000022000F0BFF81049022000F09BF8032092
:1014700000F0B8F803200C4900F08CF80B4829461E
:1014800001F010F83378204623433370F8BD002074
:10149000F8BD00BF921C0020A8200D4002020020D1
:1014A0008C860840948608402888084074000020F4
:1014B00038B503880446E3B140F2B932934203D011
:1014C00000230380032038BD822915D106F05EFA7F
:1014D00006F0FAF98021FFF723FF002805DD80B22E
:1014E00006F0ECF90C4B1B6998470C4B1A78520626
:1014F00004D440F2B9332380012038BD00221A7091
:10150000074B1D68FFF7EEFCFFF76CFFAB06F0D052
:10151000FFF7D2FCEDE700BFD0A62000921C002010
:101520004886084008B5034800F0D4FF024B00226B
:101530001A6008BD7400002034880840064B074834
:101540001A68042A1FBF06490A7842F040020A704E
:1015500000221A6000F0BEBF2C88084074000020F2
:10156000921C002010B5094C00212046402207F0B3
:10157000E5FD074B01221A602E205C60FFF756FB49
:10158000BDE810402F20FFF751BB00BF0000002036
:1015900004F00F4003289EBF014B00011950704713
:1015A0000000002003289EBF024B03EB00104160A7
:1015B000704700BF0000002003289EBF024B03EBD2
:1015C00000108160704700BF0000002003289FBF0B
:1015D000034901230A6883409CBF13430B60704793
:1015E00028F00F4003289FBF034901230A68834066
:1015F0009CBF13430B60704720F00F4003289FBF30
:10160000034901230A6883409CBF13430B60704762
:1016100014F00F4003289FBF044B03EB00108068B9
:1016200000F0070088BF0020704700BF00000020C6
:10163000024B4FF0FF321A60704700BF04F50F40B5
:10164000014B01221A6070474CF00F40094B1A6899
:1016500012F4801F1A46F9D1043B196821F4803135
:1016600019601168C903FCD41A6842F400321A6088
:10167000704700BF04200D4010B50A4B1A681C4685
:1016800012F0030F0CD0084B1A685101FBD41A68F2
:101690005201FCD5FFF7F6F8FFF7D8FF00232360CF
:1016A00010BD00BF58200D4004200D4038B5254B1B
:1016B0001C6814F03F0413D1234B53F8243023B19A
:1016C000984768B10134052CF6D1204D2B783BB1F9
:1016D000FFF7E8F80446FFF7EBF8201A092801D8CD
:1016E00030BF38BD002CFBD0194B1A6822F40032F1
:1016F0001A60184A1168C902FBD4196841F4803194
:1017000019601368DB03FCD5FFF7D2F8201A09280B
:1017100003D8BDE83840FFF799BF63280E4C02D9C3
:101720002B78022B00D00123236000F085FE20B12E
:10173000FFF78CFF0023236038BDFFF7B3F80028C4
:10174000CED1F5E748860840D0020020931C002047
:1017500000200D4004200D4058200D400023064A73
:1017600052F82310814206D011B942F82300704785
:101770000133052BF3D17047D0020020054B002226
:101780001A60054A136843F004031360034B0122F7
:101790001A70704758200D4010ED00E0931C002097
:1017A00010B59020064CFFF759FA9020FFF74AFA3F
:1017B000206818B100F08EFE0023236010BD00BF2A
:1017C000E402002030B5184B1A78431E3AB9174A84
:1017D0001278122A03D1164A12784B2A03D001F547
:1017E0002011273117E04A0802F12814B4F1281F0C
:1017F00004D014F8015D03F8015FF7E701F520114B
:1018000027310023934205DA11F801598418E55471
:101810000133F7E730BD074A914204D011F801299E
:1018200003F8012FF7E730BD2B0028002A0028001D
:1018300029002800270028000FB407B504AA52F891
:10184000041B0448019200F021F803B05DF804EB9A
:1018500004B070478400002070B505460C46102C7B
:1018600007D92B68686808491022984750B9103C7E
:10187000F5E734B12B6868682246BDE8704002493C
:101880001847204670BD00BF10A820002DE9F04F7A
:1018900080468FB0069107920026069B1B78002B8E
:1018A00000F05F83069B1C4613F8012B1AB9069BB8
:1018B0009C4203D10FE0252AF5D1F8E7069BD8F822
:1018C0000400E51A0699D8F800302A4698470028FF
:1018D00040F02A832E442378002B00F04283637863
:1018E000611C002B00F03D8300240A4611F8013BE7
:1018F0002B2B11D006D8202B11D0232B12D144F042
:101900000804F2E72D2B04D0302B0BD144F0100447
:10191000EBE744F00104E8E744F00604E5E744F0AF
:101920000204E2E7A3F1310108290DD8134600258E
:101930001A4613F8011BA1F13000092811D80A2218
:1019400002FB0515303DF3E72A2B09D1079B013235
:101950001D68191D002D0791B8BF44F0010400E077
:10196000002513782E2B1CD15178531CA1F1300087
:1019700009280ED8194600270A780B46A2F1300034
:10198000092801F101010FD80A2303FB0727303F83
:10199000F2E72A2906D1931C079A111D07911768AF
:1019A00002E013464FF0FF371A786C2A09D15A78B3
:1019B0006C2A02D144F080040AE0013344F0600450
:1019C0000BE0682A09D15A78682A03D144F0200430
:1019D000023302E0013344F040041A78642A3CD018
:1019E0001FD8462A48D00DD8252A5AD003D8002A15
:1019F00000F0B78257E0412A4AD0452A53D144F437
:101A0000424450E0582A31D004D8472A4BD144F4FC
:101A1000A13448E0612A38D0632A44D144F4A06458
:101A200041E06E2A3AD007D8662A22D027D3672A07
:101A300028D0692A11D036E0732A2CD006D86F2A14
:101A400011D0702A2FD144F440742CE0752A07D0AD
:101A5000782A28D144F4C85425E044F4245422E0E0
:101A600044F410641FE044F488541CE044F4B2448D
:101A700019E044F4007416E044F4844413E044F4A0
:101A8000024410E044F481340DE044F4C1340AE02F
:101A900044F4E13407E044F4806404E044F4E06496
:101AA00001E044F4C0640133069304F4E063B3F549
:101AB000806F00F0AA8116D8B3F5807F2BD0B3F5E4
:101AC000407F7FF4EAAE079BA04914F4804F03F1F6
:101AD00004029F4818BF08460DF1330107920F46D4
:101AE0001A680023C5E1B3F5C06F08D0B3F5E06F05
:101AF00000F03182B3F5A06F7FF4CFAE00E2D8F8EA
:101B00000030D8F80400934901229847002840F09B
:101B10000B820136C1E6002FACBF24F01004012770
:101B200014F40053039304F0E00337D0402B17D094
:101B300008D8DBB1202B2AD1079B1A1D079293F9F5
:101B4000002017E0602B11D0802B20D1079B07339A
:101B500023F0070303F108020792D3E900230AE008
:101B6000079B1A1D0792B3F9002003E0079B1A1D7B
:101B700007921A68D317002A73F1000109DA52425A
:101B800063EB4303CDE900234FF0010933E000226A
:101B90000023CDE900234FF000092CE0402B16D0A4
:101BA00007D8CBB1202B20D1079B1A1D07921A789A
:101BB000EEE7602B10D0802B17D1079B073323F063
:101BC000070303F108020792D3E90023E1E7079B2B
:101BD0001A1D07921A88DBE7079B00211A1D07923E
:101BE0001B681846CDE90001D5E700220023CDE9A6
:101BF00000234FF0000904F4C053B3F5805F0CD00C
:101C0000B3F5C05F33D0B3F5006F4FD1DDE90023EA
:101C10000DF1360ACDE9042304E0DDE900230DF1DE
:101C2000360A15E0DDE9042313433AD0DDE9040167
:101C30000A22002306F09EFEDDE9040130320AF894
:101C4000012D00230A2206F095FECDE90401E9E703
:101C500052EA030125D002F0070130310AF8011DD4
:101C6000D10841EA4371D8080A460346F0E7384BE9
:101C700014F4804F0DF1360A344908BF1946DDE9E6
:101C8000002352EA03000CD002F00F00085C4FEA78
:101C9000131E0AF8010D100940EA0370024673464C
:101CA000EFE70DF1360BCAEB0B0B03E00DF1360A33
:101CB0004FF0000B41F6080241F208035F4502EACB
:101CC00004028CBFCBEB070700279A4202D1002FFA
:101CD00008BF012741F608018A4207EB0B030DD12B
:101CE000DDE9000150EA010208D01B4914F4804FDD
:101CF0001A4A4FF0020C18BF0A4602E04FF0000CDF
:101D000062460399A1B1B9F1000F0AD104F00601AE
:101D100002290AD00629124904BF4FF0010C0A46D5
:101D200006E04FF0010C0F4A02E00F4A4FF0010CA1
:101D300063449D428CBFED1A002514F0010922D1A5
:101D4000E30613D52F444D461DE000BFDBA720005E
:101D5000ECA720000EA8200000A82000FDA720006E
:101D600005A8200003A8200046A7200040462946D9
:101D7000CDF80CC00092FFF76FFD009ADDF80CC0A3
:101D8000002840F0D180BCF1000F0DD01146D8F8EA
:101D900000306246D8F80400CDF800C09847DDF85E
:101DA00000C0002840F0C0803C465E44102CD8F8AB
:101DB00000300DD9D8F804006C491022CDF800C0CD
:101DC0009847002840F0B080103CDDF800C0EDE7F7
:101DD0005CB1D8F8040065492246CDF800C09847A8
:101DE000DDF800C0002840F09F80D8F80030D8F817
:101DF000040051465A4666449847002840F09480B3
:101E00003E44B9F1000F79D073E0079BD3F800A0EE
:101E10001A1D0792BAF1000F09D05346994699F856
:101E200000200133002AF9D1CAEB090903E0DFF8E9
:101E300040A14FF00609002F02DBB94528BFB94683
:101E40004D458CBFC9EB0505002514F0010405D1F3
:101E500040462946FFF700FD002865D1D8F800303C
:101E6000D8F8040051464A46984700285CD14E44B1
:101E70003EE052EA030E0ED002F00F0E10F80EE014
:101E80004FEA131C01F801ED4FEA121E4EEA037EE1
:101E900072466346EDE70B467F1A01BF30220127E9
:101EA00001F1FF3301F8012C03377822BD4203F81A
:101EB000012C4FF0300203F8022C88BFED1B4FF0CD
:101EC000230298BF002514F00104A3F1030903F8CD
:101ED000032C04D140462946FFF7BEFC20BBD8F8AE
:101EE0000030D8F8040049463A469847E0B93E44E5
:101EF00024B140462946FFF7AFFCA8B92E44CCE4F4
:101F0000079B012D03F104021B688CBF05F1FF350F
:101F1000002514F0010407928DF8203008D14046C6
:101F20002946FFF799FC10B14FF0FF301AE02E441C
:101F3000D8F80030D8F8040008A9012298470028F2
:101F4000F2D16F1C2CB140462946FFF785FC0028D2
:101F5000EAD13E44A1E4079B1A1D1B6807921E604C
:101F60009BE430460FB0BDE8F08F00BFCBA7200048
:101F700007A82000F8B50388064615462BB14A2B62
:101F800015D0002303800320F8BD174807F08CFA12
:101F900004462CB1201DA16807F00DFA2468F8E76B
:101FA000124B01221A704A2333800120F8BD882980
:101FB000FBD10D4807F078FA0446002CF3D0231D1E
:101FC0009D420ED10848214607F078FA084B626915
:101FD0001F681A60A2691D460AB1E06990472F6028
:101FE000E1E72468E9E700BFE8020020941C002034
:101FF000FC02002010B5064B002406481C7007F0B8
:1020000050FA2146BDE81040034800F04BBA00BF2B
:10201000941C0020E80200208C00002070B50446CB
:10202000E3610B4B049D1B786561A26143B1094DCF
:10203000094B2E68201D2B6007F0BDF92E6000E0D3
:10204000A1602146BDE87040044807F04BBA00BFCC
:10205000941C0020FC0200208C000020E8020020DC
:1020600013B5034C24680094FFF7D8FF02B010BDED
:10207000FC02002070B5094B05461B783BB1084CAB
:10208000084B26680430236007F09EF92660294635
:10209000BDE87040044807F025BA00BF941C00203A
:1020A000FC0200208C000020E802002010B5084B44
:1020B00004461B781BB1043000F0B8F801E0C3609F
:1020C00003612146BDE81040024807F0F7B900BFA0
:1020D000941C0020E802002010B50446FEF7BAFB6D
:1020E00094E80C001344C01A024B98428CBF0020A5
:1020F000012010BDFEFFFF7F10B50E4C236813B901
:102100000D4A136010BDFEF79BFB216891E80C009F
:102110001A44131A8A6842B192E812002144091A3B
:102120008B4228BF0B469268F5E71844024B1860B3
:1021300010BD00BFEC020020F0020020014800F0BA
:10214000C9B900BF9C000020F8B5038805462BB133
:10215000592B09D0002303800320F8BD1E4A1360C9
:1021600059232B800120F8BD872920D08229F7D15F
:10217000194F00263C68002CF2D0204607F058F991
:1021800090B1E0688821224600F060F950B9E06023
:10219000A3680EB1B36000E03B600023A360FFF7CB
:1021A000ABFFE5E7FFF7CAFF2646A468E3E70A4965
:1021B0000B680BB90B60D3E7D868904201D19B68DC
:1021C000F7E70B6099680029CAD0C86890420ABF37
:1021D00089680B469960F5E7EC02002010B50446CB
:1021E000FFF7ACFFE3680B4A4BB113683BB1A34266
:1021F00003D1094A1268DA6007E09B68F6E7064BEC
:102200001B68E36013681460A360BDE81040FFF72B
:1022100073BF00BFEC020020FC020020024B1868D4
:10222000003018BF01207047EC02002010B50B4AA7
:1022300004461368984206D18368136008E09A68E0
:10224000A24203D01346002BF9D103E0A2689A60A2
:10225000FFF752FF0023A360E36010BDEC020020F3
:1022600038B5836804460D469BB10A4804600220D5
:10227000A07304F10C0098470238012801D9832D7E
:1022800005D120462146BDE8384000F005B80123BD
:10229000A37338BDFC0200202DE9F8431C4A044614
:1022A000156889462B4690461A4E3768A34204D0DB
:1022B0000BB11B68FAE7BDE8F88334B3A37BABB17D
:1022C0000023A37345B1AC4204D02846872122469F
:1022D00007F094F82D68F5E7A3683BB14C4505D0AD
:1022E000346004F10C0083212A469847D8F8003066
:1022F0009C4203D12268064B05E0134623B11A68BD
:10230000A242FAD122681A603760BDE8F88300BFA4
:1023100004030020FC02002010B5094B00221A70B3
:10232000084B1C685CB1E37B3BB101230022A37323
:10233000E27320468221FFF793FF2468F2E710BD85
:10234000971C002004030020024B1878421C1A70CE
:10235000704700BF9A1C0020064B8A221A70064A5A
:1023600000231370054A1370054A1360054A136071
:10237000704700BF9A1C0020951C0020961C00206E
:1023800004030020FC0200202DE9F041214E3378A7
:102390000BB1FFF7C1FF204D2C78002C34D0DFF8B3
:1023A0008CE00C229EF800301C495A4388181C4FC0
:1023B000895CDFF87C804268DFF878C08068013390
:1023C00003F01F03013C3970C8F80020CCF800006E
:1023D0008EF800302C7088B9124C134B1B682360A8
:1023E00023688BB133780BB1FFF796FF20683978FB
:1023F000D8F8002007F002F82368EFE7812904BF2E
:102400000123837306F0FAFF337828781844BDE877
:10241000F08100BF971C0020961C002008030020BC
:10242000991C0020F802002004030020951C0020C5
:1024300000030020F4020020024A034B10781B78AE
:1024400018447047961C0020971C0020F0B50C4ED5
:102450003478202C11D00B4B0B4D1B780B4F2344A1
:1024600003F01F032B700C256B430134FD18A8608B
:10247000F9546A6034700020F0BD0120F0BD00BF47
:10248000961C0020951C0020981C002008030020AA
:1024900038B5034C256806F0B1FF256038BD00BF94
:1024A000FC02002010B50A4609490C682346834205
:1024B0000DD00BB11B68FAE748B104600860012138
:1024C000817383818121BDE81040FFF7E1BF10BD1A
:1024D0000403002038B1837B013B012B9FBF024ADC
:1024E0000123C37313707047971C0020024610B578
:1024F000064853600468029B11609360026014B93F
:102500000846FEF7EBF9002010BD00BF880400204C
:1025100010B5084C206858B10023236081684368D7
:102520009847236823B1BDE810401868FEF7D6B974
:1025300010BD00BF8804002070B505880446692DD1
:1025400009D07D2D32D0002D36D1FFF7FDFE1D4B79
:1025500018701D4B1D601D4806F093FF431C01D1F0
:10256000692321E0184B0A281A6806D07E2AF2DC7B
:10257000511C1960164B9854EDE7511C1960144E0C
:10258000104B00251978B55428463246FFF75EFFF8
:1025900031461048FFF750F90F4B852118682A463D
:1025A000FFF754FF20B97D23238009E0852907D157
:1025B000054B00221A60CEE700230380032070BD84
:1025C000012070BDCC2A0020940400208C0400203F
:1025D0001C1D00203BA82000FC02002038B504464A
:1025E0000F482146FFF728F90D2C17D00D4D2B78F9
:1025F00033B90D48214606F030FF50B9012307E0FA
:102600000A2C06D10848214606F027FF08B100230E
:102610002B700648FFF75EFF012038BD002038BD53
:102620004FA820009B1C00208C040020AC00002040
:1026300008B505480549802206F008FFBDE80840B6
:1026400003480021FFF72EBF8C0400209C1C0020B3
:10265000AC000020054A136843F004031360044BE8
:102660001B68906943EA002080B2704700700D40FB
:1026700014700D40174A136823F00C031360164BB7
:1026800001221A601A68012AFCD1144B08221A6030
:10269000E322C3F8142203F505731946104B1B6897
:1026A000DB07FBD5102000230E4A0138126802F028
:1026B000010243EA02034FEA43039BB2F4D1002B29
:1026C000F0D0094A180A03F0FE0310601360EF23EC
:1026D0000B60704700700D40A8200D402486084014
:1026E000648608409C86084014700D402DE9F04334
:1026F000344C354D85B004F108030FCB8DE80F0045
:102700002B786E46E779002B3DD004F0E1FDDFF831
:10271000C090804629783A2300B3814284F828305B
:1027200013D0B9F80020521A024492B2A9F800203E
:10273000283A131262712C312C30C8EB020220446B
:102740002144043A237106F095FCB9F8003085F86D
:102750000080C8EB0308A9F8008014E0B9F8002055
:10276000A371521A92B2A2F1280318122C31A9F8BF
:1027700000202071214404F12C002C3A637106F0F2
:1027800079FC85F80080114806F08EFE804690B1F5
:10279000D8F804C0BCF1000F09D00D4B2A781B8873
:1027A00038322C3B3046394622449BB2E047404603
:1027B00006F0B7FEEAE7064B2870188005B0BDE8C2
:1027C000F08300BFDC200020C61D002098040020FC
:1027D000C8200020F8B5384B384C1B7904F1180696
:1027E000E371237E04F10805FF2B08D195E80F0063
:1027F00086E80F002846314600F0DEFA1BE02F463F
:10280000B6462F4A3B4603CB7345106051601F46C6
:1028100002F10802F6D196E80F0085E80F00284B78
:10282000284D03F110062A4618685968083303C278
:10283000B3421546F7D1244D2B787BB304F048FD05
:102840002B7806463A22B0B183421C4F84F82820E8
:1028500023D01E490A88D21A024492B20A80283A2A
:10286000111239717A7103F12C012C30921B38440A
:102870003944043A0FE01549A2710A88D21A92B27B
:102880000A80A2F12801081220716171104803F139
:102890002C0121442C3A06F0EDFB2E702B7881227E
:1028A0002833E518E25400236B706B8006F002FFBA
:1028B000C0436880F8BD00BF5C1F0020DC20002002
:1028C000D8160020F4200020C61D0020C8200020BB
:1028D0000821002038B504460B480D4606F0E4FDFB
:1028E00078B10379A34209D14379AB4204D183681B
:1028F0003BB19847002038BDFF2BF8D006F011FE01
:10290000EEE7012038BD00BF9C04002001460148CD
:1029100006F0E8BD9C0400202DE9F74F494D8146A3
:102920002B7888469246484C43B12833E35C3A2BD7
:102930000BD1464A002313802B707FE0A3793A2BFA
:1029400003D194F92830002BF3DA04F0C1FC404E97
:10295000404A0746B4469346287006F1100E3346A7
:1029600003CB7345106051601E4602F10802F6D198
:10297000364E04EB47003388303030339BB2B3F52A
:10298000A06F88BF4FF4A063338032882E4BD21BD8
:102990001946303ACDF804C0009306F06BFB9DE871
:1029A0000810602222700022627062803A2217B101
:1029B00083F8282000E09A71274A234B1279E271AC
:1029C000228972B95A8962B99A8952B9DA8942B9A7
:1029D0001A8A32B95A8A22B99A8A12B9DB8A002B2A
:1029E000A7D01E4B0FCB8CE80F009BF80030FF2BBD
:1029F00005D1B9F1040F9CD1B8F1020F99D1154955
:102A0000164800F0D9F92F78504607F12803E2184C
:102A100004F8039082F8018006F055FE33882C37C5
:102A2000283BE0511A1263712B78227128331C4421
:102A30000023638006F03EFEC043608003B0BDE823
:102A4000F08F00BFC61D0020DC200020C820002021
:102A5000F4200020D81600205C1F0020E420002075
:102A60002DE9F0411E460F461B4905460C466023E2
:102A70000B7000234B704B803A238B71174B9046A1
:102A80001B7900F1100ECB71331D1A120A714B71B4
:102A900001F11802134628686968083503C37545B3
:102AA0001A46F7D10E482C3600F1100100F084F9D7
:102AB0000C4B1B782833E518E75400236B8085F80E
:102AC000018006F0F7FDC043074B68801E80BDE81B
:102AD000F04103F0D7B800BFDC2000205C1F0020CD
:102AE000E4200020C61D0020C820002008B50448AE
:102AF000FFF70CFFBDE808400248FFF707BF00BF23
:102B0000BC000020C80000202DE9F3410446154D0B
:102B100000910E4690461F46019523461248032118
:102B2000202206F057FD01282B4616D12A6804F111
:102B30001001107020462A68023250F8044B884277
:102B400042F8044BF9D11868089B86744361099BCD
:102B500080F813800777836100E0002002B0BDE8B1
:102B6000F08100BFA40400205820002070B5064664
:102B70000B4D0C4B2B602C680B4B9C420BD22378DB
:102B800033B1A27CA01C3146D20806F0CBF920B1AB
:102B900020342C60EFE7002070BD012070BD00BF25
:102BA000A404002058200020B820002013B5084CB1
:102BB000802203460092019406480321202206F059
:102BC00009FD08B9206800E0002002B010BD00BF78
:102BD000A8040020741F002010B50C4A0C4B136091
:102BE00013680C498B420DD2197849B1411C02D0AF
:102BF000997C814204D148F2FE015C888C4202D06B
:102C00002033ECE70023184610BD00BFA8040020C5
:102C1000741F0020D41F002037B504460F4D8023B9
:102C20000093019523460E480521122206F0D2FC9E
:102C300001282B460ED12A6804F11001107020469D
:102C40002A68023250F8044B884242F8044BF9D10A
:102C5000186800E0002003B030BD00BFA0040020D1
:102C6000F81F0020F7B50546204C802300930E4640
:102C7000174601941E48032120222B4606F0AAFC89
:102C8000012830D12A46236805F110011870236805
:102C9000023352F8040B8A4243F8040BF9D120683E
:102CA000C77416B90123037505E000230375314687
:102CB000183006F079FB23680E480121997402232D
:102CC0004370FF220023027043808380C38003810E
:102CD0008372C17202736B7B4373EB89C381FFF70D
:102CE0009BFF206800E0002003B0F0BDA804002096
:102CF000741F0020E816002013B5084C80220346FC
:102D00000092019406480521122206F063FC08B9DE
:102D1000206800E0002002B010BD00BFA004002029
:102D2000F81F002038B50546C8B10D48022200241E
:102D30004270FF230122C27244808480C4800481D7
:102D4000847203730370EB7B43732B8AC381FFF799
:102D5000D3FF044A106008B106F060FC2C7038BD47
:102D6000E8160020A004002010B50F4B0F4C236084
:102D700020680F4B98420ED203784BB1037D3BB9CC
:102D80001830FFF7A9F918B1084B1868FFF7CAFF08
:102D900023682033EBE700F0DDFA01F007FCBDE823
:102DA0001040044806F010BB741F0020A804002047
:102DB000D41F0020B82000202DE9F84348F2FE037C
:102DC0000A8805469A42884621D00B78FF2B1ED0F0
:102DD0001B4B0024A1461F461A4A1A603E681A4A35
:102DE000964218D233787BB1B37C012B0CD148F2D8
:102DF000FE0372889A4207D04046B11C06F01BFCC5
:102E0000484524BF3446814620363E60E6E701202F
:102E1000FFF7E2FE04464CB92C806C80AC80EC805D
:102E20002C816C81AC81EC81BDE8F883A31C123449
:102E300053F8042BA34245F8042BF9D1BDE8F883DD
:102E4000A8040020741F0020D41F002010B5FFF735
:102E500001FC0446FFF7FEFB054B24029A68A4B26E
:102E60002044B0FBF2F302FB130000EB520010BD54
:102E70005C1F002073B52F4C01F01CFB00F08EF896
:102E8000002160222C4806F059F900212046F82242
:102E900006F054F9294B20221A70294B18221A7077
:102EA0004FF4A0632360274B40262671A360FFF7F1
:102EB000CDFF42F21073236148F2FE03314640F227
:102EC000FF260025E06025751F4C2A46238065807B
:102ED0002B46A580E580204600950195FFF714FE5E
:102EE00020461A4906F09EFB294601222046FFF79C
:102EF000B9FE4FF480732046E38126806580A5806B
:102F0000E58025816581A581FFF786FE4FF400737A
:102F1000204626806580A580E58025816581A58184
:102F2000E381FFF779FE0A480C2102B0BDE870404A
:102F300006F041BA5C1F00205820002055200020D8
:102F400054200020C0270900E8160020D4200020CB
:102F5000B82000202DE9F04105460D480F46904667
:102F600006F0A2FA044688B1012D04D8094806F0FB
:102F7000D1FA034601E0084B1B68284666683946CB
:102F80004246B047204606F0CCFAEBE7BDE8F081B8
:102F900058090020F0040020EC04002008B50B487C
:102FA00006F0C2FA0A4806F07CFA0A4B0A49186889
:102FB00004F060FB094806F0B7FA094806F071FA18
:102FC000BDE80840074806F06CBA00BFF4000020D6
:102FD00094050020F000002079962000D400002005
:102FE000F00400205809002008B5034640B1054A06
:102FF0005968106807F00DF9BDE8084006F06DBB90
:1030000008BD00BFF0000020014806F04DBA00BF27
:10301000940500202DE9F0418046FFF7F5FF0026DA
:10302000044637469CB194F82450B5420AD3404632
:1030300004F10801EA0805F075FF18B9802D08D0E1
:103040002E462746204606F013FB0446EAE73C4698
:1030500067B1084806F028FA844207D0054821469F
:1030600006F02CFA0348214606F04BFA2046BDE84C
:10307000F08100BF9405002038B5044600283ED0FA
:103080004368002B3BD01E48214606F017FA6368C0
:10309000586806F009FA054630B14368A34207D0E4
:1030A000284606F03EFAF6E704F1080002F030FD8B
:1030B00063682946586806F001FA6368586806F0A4
:1030C000F3F928B963680F4A5968106804F08EFB59
:1030D00021460D4806F04CFA29460C4806F048FAFD
:1030E0000B4A20461368013B1360FFF77DFF04F194
:1030F00008010246BDE838400320FFF72BBF38BD6A
:1031000094050020F0000020F400002000010020C1
:10311000EC04002010B5044680B1406870B106F0A0
:10312000C3F920B14068FFF7A7FF6068F7E7044BD9
:103130002146BDE81040186804F058BB10BD00BF20
:10314000F00000202DE9F84F0746104689469046CA
:1031500006F0C5FA834610B90020BDE8F88F38465E
:10316000FFF758FF044660B1FFF73EFF014628B164
:103170004046102205F0D6FE00285CD02046FFF71E
:103180007BFF2E4B1A689A46142A04D12C4806F06D
:103190008DF9FFF771FF2B4E5946306807F020F884
:1031A000054658B93068594604F092FA0546002899
:1031B000D2D000236860036006F073F9224806F05D
:1031C000C3F904460028C7D01D48214606F099F9E6
:1031D0001E4806F0B9F9834620B921461A4806F080
:1031E000C7F9B9E744606868594606F07BF9DAF830
:1031F00000306560013330682946CAF8003004F0B9
:103200000BFB3B4604F1080507F110062A46186837
:103210005968083303C2B3421546F7D100210C2286
:1032200084F8249004F1180005F088FF0220394644
:103230004246FFF78FFE2046BDE8F88FEC040020E1
:1032400094050020F0000020F40000200001002080
:1032500038B505460D4806F027F90446A0B1AC4242
:103260000ED12146094806F029F92146084806F002
:103270007FF9211D01200A46BDE83840FFF76ABEEC
:10328000204606F04EF9E8E738BD00BFF004002004
:10329000D400002038B50546084806F005F9044674
:1032A00048B1201D2946102205F03CFE18B12046E9
:1032B00006F037F9F3E7204638BD00BFF0040020E0
:1032C000F8B505460F46FFF7E5FF044640B9134839
:1032D00006F03AF90446F0B11148214606F011F91A
:1032E0002B46261D05F1100E324618685968083322
:1032F00003C273451646F7D137B104F114003946BD
:1033000006F052F8002300E001232377002029462D
:103310002A46FFF71FFE2046F8BD00BFD40000205C
:10332000F004002038B50A4806F0BEF8044600252F
:1033300064B1251D284601F0FFF810B190F8223045
:1033400023B9204606F0EDF80446F1E7284638BDDB
:10335000F004002010B50A4806F0A6F8044670B143
:10336000237F43B904F11400FEF7B6FE18B12046DE
:10337000FFF76EFFEFE7204606F0D3F8EEE710BD4B
:10338000F004002037B5124B124D1C782B796A7966
:10339000C4EB032313449BB2ADF80630BDF80630EE
:1033A00005F108011844202280B206F067F9BDF843
:1033B000062004F12801294492B206F05FF910B109
:1033C00040BA80B201E04FF6FF7003B030BD00BFDD
:1033D000C61D0020DC20002028492DE9F041884648
:1033E0000D78274E2835AB195C782648E400073461
:1033F00002239C423DDBE9187218715C204F0129C1
:1034000032D002D3632902D013E001332FE00370DE
:1034100018461C4C03F0F0FDD8B998F8003022781B
:10342000283313443B445B78134402332370BDE8D4
:10343000F08101F0C001802905D0C02905D04029C4
:1034400012D1037005E0037006E03A7E0370FF2A94
:1034500002D10120BDE8F08104200221EA18FFF723
:103460005BFA0220BDE8F081527802321344DBB2ED
:10347000BFE703700020BDE8F08100BFC61D00203B
:10348000DC200020CC1D0020F0B5C578124A0D4488
:10349000EDB2D57083780F0A3B44DBB29370447869
:1034A000BB4254700678167005D2601CC0B25070D2
:1034B00008B901361670C9B28D420CDA0133DBB29D
:1034C000054993703BB94B780133DBB24B7013B9AC
:1034D0000B7801330B70F0BDD020002010B5084CE4
:1034E000014620681430FFF7CFFF064A23681178A1
:1034F0001975517859759178D2789975DA7510BD2A
:1035000000260020D020002008B5FFF7B3FCFFF70D
:10351000EDFA01F0A3FB00231149002221F813204A
:103520000133DBB2082BF7D10E49302303FB021124
:103530000132D2B200230A2A81F82530F4D10A4A96
:103540004FF480611180094A002102EB43120133DC
:10355000DBB20A2B1182F6D1054A137008BD00BFF9
:10356000EC27002004260020FA1600200028002066
:10357000CD1D00202DE9F041124F3D7805B3DFF855
:103580004C8005F12703B8F80040A34203DB002379
:10359000A8F8003013E00C4EA4F1280205F1280130
:1035A000641BA4B206F128003144521B05F062FDF1
:1035B000A8F80040283C23123371747100233B703B
:1035C000BDE8F081C61D0020DC200020C8200020BE
:1035D0002DE9F041034626480288013292B2B2F545
:1035E000FA4F28BF4FF4805200240A2C0AD0214DF4
:1035F00005EB44152E8A55BAADB2AE4204F1010472
:10360000F3D1EAE7DFF874E0028000220A2A18D03A
:10361000184E55017419B4F81080571CFFB2B8F158
:10362000000F0CD18EF800200288618252BA2282EB
:1036300063B920461946102205F080FD11E03A4694
:10364000E4E78EF800200020BDE8F081274603F172
:10365000100E3A4618685968083303C27345174676
:10366000F7D1054B35441B7920462B75BDE8F08119
:10367000FA160020002800205C1F0020CD1D00202D
:1036800030B50A490023082B0DD0094C5A1C34F8D8
:103690001350D2B2854204D100220B7024F81320BB
:1036A00030BD1346EFE70B7030BD00BFCD1D0020CD
:1036B000EC2700202DE9F74FA44E04283468B346C8
:1036C000A34F00F06782A349A34DA44A03280D60CD
:1036D00015608A4615D194F8253003F00F03032BAB
:1036E00008D1A38B002B40F0BB869D4B08221A709B
:1036F00000F0A7BD022B40F0B386002305F8073C7D
:10370000CFE302287AD1974A00231370964A3B8070
:103710001380964AD3780133DBB2D37063B99378C0
:103720000133DBB293703BB953780133DBB2537092
:1037300013B913780133137094F8253003F0FD02A8
:10374000052A0DD194F826300133DBB2782B84F8AA
:10375000263040F08586002384F8253000F080BEB6
:10376000002B00F07D86A28B7D48002A3DD094F886
:103770002620511E84F82610002A40F0718694F805
:103780002720082A04D0591E01290AD8052A08D161
:10379000002384F825308023037002F0EFFB00F053
:1037A0005EBD042A9CBF0321914003F00F0394BF28
:1037B000C9B230210132013B84F8261084F8272059
:1037C000072B00F24D86DFE813F0680308000A00BB
:1037D00003054B0603054B06030500225EE30423A5
:1037E000037002F0CBFB00F06BBD03F00F03032B63
:1037F00040F036860823037000F023BD052811D160
:103800005B4B1B681B8A002B00F02A860C3D156061
:10381000554A0023138033603B80514B08220D60D2
:103820001A70B5E115F83C3C3C3D03F0F003602B09
:1038300040F016862B796A791B02398898188842DD
:1038400000F30E86283213443B802B7AFF2B00F0C6
:103850000786484EAB1D3360474C424B00221A701E
:103860002270AA799846BAB901232370FFF7B4FDF4
:10387000012800F0F58503D3022800F0ED850BE068
:1038800098F8003003F128022A4432605278083355
:1038900003EBC20388F800303848FFF787F90028A7
:1038A00040F0B2803548FFF727FA002840F0AC809E
:1038B0002A7E334BFF2A65D048F2FE00198B8142E5
:1038C00060D0198981425DD079B9598969B99989DE
:1038D00059B9D98949B91B8A3BB9698A284B21B999
:1038E000998A11B9DB8A002B4CD0298B244B79B9EA
:1038F000598B69B9998B59B9D98B49B9198C39B98F
:10390000598C29B9998C19B9DB8CB3F5807F39D0E2
:103910003B88B3F5A06F04D9022000214FF4A062C8
:1039200006E0EB79164C012B06D800210A4603204D
:10393000FEF7F2FF00F090BD03F0E8FB002840F036
:103940008F85E379013BE37100F086BD00260020FE
:10395000C8200020FC25002018210020CC200020B9
:10396000F0250020C61D0020FC270020C81D0020D7
:10397000F8250020F4250020C71D0020F420002099
:10398000DC20002048F2FE032989994240F0688536
:10399000298B9D4B81B9598B71B9998B61B9D98BA1
:1039A00051B9198C41B9598C31B9998C21B9DB8C39
:1039B000B3F5807F00F05485FF2A00F051859348CD
:1039C000FFF7D4F80246002840F04A850120022182
:1039D000AEE720D93A2B70D025D93B2B00F040859B
:1039E0003C2B66D123788A49980735D5580660D490
:1039F00043F040030B70FFF7EFFC012800F0308527
:103A00002DD3022800F028853268DFF83092137831
:103A10002B2BDED130E0062B00F01281112B6DD064
:103A2000002B46D103E02C2B00F01A8541E02378CF
:103A3000D9073ED4764A43F001031370FFF7CCFC5C
:103A4000012800F00D85DCD298F8003003F128023F
:103A50002A44C9F8002008E043F00203CAE798F8B6
:103A6000003003F128022A4432605278083303EB15
:103A7000C20388F80030C7E7237803F0040000F0A1
:103A8000FF01B0B9624A43F00403137098F80020B4
:103A900002F128032B44D87810B104202A3247E7DA
:103AA000C9F800305B78083202EBC302594B1A7038
:103AB000AAE704200121521B3AE705F0FBFD4FF66F
:103AC000FF73984240F0CC8498F800302833E85CCB
:103AD00002F0B2F898F800302833EA18E85C517820
:103AE000FEF7F8FE012801BF00234A4A3B8013700D
:103AF0003B88002B00F0B48400F0AEBCFFF73AFD29
:103B00003B88454E303B3B80EB8DCAF8006063B983
:103B1000B5F82A80B8F1000F00F0A2843F4B404D69
:103B20002B60394BB3F828900BE005F0C9FD4FF638
:103B3000FF73984240F09484EAE7238A3BB920342B
:103B40002C602C68374B9C42F7D300F089BC984519
:103B5000F5D1638A0BB19945F1D123682BB963681C
:103B60001BB9A3680BB9E36833B12F482146102273
:103B700005F0D8F90028E2D12C4A022111702C4A14
:103B8000002316602B4ACBF80030CAF8006013807F
:103B900002F0F4F9274B1A88002A00F0618402F140
:103BA0003003194C9BB23B80283B191263711C4BAC
:103BB00008321B6852BA2171197DA2850022E28564
:103BC0001A8AE17122855A8A11216285A17104F154
:103BD00018050FCB85E80F0004F108002946FFF710
:103BE000EBF8154B04F13C021A6005F069FDC04387
:103BF00080B208B1E08502E04FF6FF73E38503F081
:103C00009BFB00F023BC00BFDC200020F420002040
:103C1000C71D0020C61D00200C2100200028002008
:103C2000F825002040290020E4200020F025002075
:103C3000CC200020FC270020FC250020F4250020BB
:103C4000FFF798FC05F039FD4FF6FF73984240F0FE
:103C500007846B8D002B00F00384C24AB2F828C0A1
:103C6000BCF1000F00F0FC83BF4E344696F825905F
:103C7000B9F1000F11D0328A9A420ED1728A624590
:103C80000BD1BA48314610228DE8081005F04AF9E8
:103C90009DE80810002800F01A81B54A3036964297
:103CA000E4D195F8352002F03F02022A12D1B14941
:103CB000B14E88460B800022082A0AD0AF4931F85D
:103CC000121001328B42D2B2F6D1002232709146EC
:103CD00057E0327095F83520A24B500700F1C083B1
:103CE000142283F835203C223A80502283F8342075
:103CF00093F8332093F8314093F82F0083F82F2066
:103D000093F8322093F82E109B4E83F82E2093F8D0
:103D10002D2083F82D4093F82C400130347093F817
:103D20003060C0B283F8321083F8312083F82C6001
:103D300083F8304083F8330060B90131C9B283F8A9
:103D4000321039B90132D2B283F8312012B9621C73
:103D500083F830202B8D874A894C13806A8D6B85C0
:103D60002A85A4F1100595E80F0084E80F00284685
:103D70002146FFF721F854E3BEF1070F10D00132BE
:103D8000D2B20A2A19D0302101FB024101F12000F0
:103D900090F805E0BEF1000FEED132700C4611E054
:103DA000B9F1000F04D0807999F826108842E6D93D
:103DB0004FF0300909FB0249E1E74C463270002C14
:103DC00000F04E8303222382684B84F8262084F877
:103DD0002420042284F823200FCB84E80F00694BB1
:103DE00001201A784FF0000922765A78A4F812C000
:103DF00062769A78DB78A276E37695F82C3084F8B0
:103E00002500237595F82D30A083637595F82E3025
:103E1000CBF80040A37595F82F3084F8229084F8F1
:103E20002790E375FFF75AFB95F8343003F0F00262
:103E3000502A32D9544A1B09053B980096464B46F6
:103E40001178834226DAEA1892F83C1011B301295E
:103E500001D101331CE0022915D192F83DC0BCF11B
:103E6000040F10D18EF80010337092F83E1092F8C3
:103E70003F3043EA0123402BA8F8003028BF4023FD
:103E8000E383238409E0EA1892F83D2012B1134439
:103E9000DBB2D6E78EF8001033701022314B83F876
:103EA0003520304B93F8352042F0020283F835205C
:103EB000022283F83C20042283F83D20002283F86C
:103EC0003E20402283F83F203A8060226DE295F840
:103ED00035202E4902F0040E3446CBF800600870FD
:103EE0000EF0FF03BEF1000F04D0202386F825005A
:103EF0000B7009E21B4909F00F0991F83410B9F170
:103F0000020F4FEA11114FEA81001B4908703988EE
:103F1000A1F12801A1EB000189B2398003D102F09F
:103F20003F00122805E0B9F1010F03D102F03F0074
:103F300002282DD009B991072AD0A88DB18A8842CC
:103F400004D10849C88DF18A884221D0960740F1F2
:103F50002582B9F1010FA0D0B9F1020F40F01E8205
:103F60009FE700BFDC20002004260020E420002082
:103F7000E4270020F8160020CD1D0020EC270020AB
:103F8000F4200020C81D0020CE1D0020F0250020B8
:103F9000D00657D5B18B002954D006F118000093F4
:103FA000FFF772FAB64A95F8300092F800E0B5498A
:103FB0008645009B46D191F8310092F801908145E9
:103FC00040D191F832C0907860453BD191F83310E0
:103FD000D2788A4236D1F27696F8272086F818E011
:103FE00086F81990B07622BB96F8242096F8260021
:103FF00096F822E0101AA0EBDE00C0B25FFA80FC57
:104000001CF0800F96F82320864418BF4042A2EB94
:10401000920218BF5FFA80FC02EB0C015FFA8EFE81
:10402000CAB286F8232002EBDE0286F822E086F888
:104030002420954A0121117096F8242086F8262024
:104040000022B28396F82510DFF83C9201F00F02AF
:10405000013A072A00F20482DFE812F00800250086
:10406000950059017B019501A0014B0199F80020B1
:10407000854BD1070FD5032286F8252038884022AA
:104080001A700022B283002800F0D88042221A70F1
:10409000FFF724FAD2E095F8353003F03F03022B06
:1040A00040F0DE81F9E699F80020D20760D595F856
:1040B000352002F03F02122A5AD1724A92F8341087
:1040C00001F0F002502A36D9704809090539027802
:1040D000DFF8C4E189008B422ADA05EB030C9CF877
:1040E0003C202AB3012A01D101331FE0022A15D155
:1040F0009CF83D90B9F1040F10D102708EF8003099
:104100009CF83E209CF83F3043EA0223604A402B53
:10411000138028BF4023F38333840CE005EB030CAA
:104120009CF83DC0BCF1000F02D06344DBB2D2E783
:1041300002708EF80030032386F8253095F82C3075
:104140000120337595F82D30737595F82E30B375C1
:1041500095F82F30F375FFF7C1F94B4A42231370DE
:104160004C4A0023B3833B8088F80030138068E01A
:10417000202389F8003001F001FFDBF80030002235
:1041800083F82520A6E595F83530D80725D5CA0649
:1041900023D4B38B002B40F063813888013080B288
:1041A000FFF79CF999F8003043F0100289F80020DD
:1041B0003A881AB1344A43F01203137001F0DEFE5C
:1041C0000123B383082386F82530002386F827309F
:1041D00011222C4B83F83520E3E098060DD595F895
:1041E0003A2095F83B3043EA0223DAF800201A44DB
:1041F000CAF800203A88D31A3B80388848B1CA06EA
:1042000007D499F8003043F0020389F80030FFF733
:1042100065F995F8362095F83730318C03EB022399
:104220009BB21B4A8B42138000D803B911801388BC
:10423000F38399F800309B0700F01281154B0022A0
:104240001A8001F09BFE104B1A78124B02F02000EE
:1042500000F0FF0128B100221A8084F825201422E2
:10426000B7E702F0100000F0FF05B8B11980012394
:10427000A383042384F8253084F82710A8E700BF1F
:10428000D0200020DC200020F0250020CE1D0020C2
:10429000F8160020FC270020CD1D0020198861B1F0
:1042A000D60748BFA583A28B32B9E28B914288BF63
:1042B0001A801B88A38300E01A80002384F827302B
:1042C0006D4B1B68CAF800306C4B1B882BB1A38B5D
:1042D0001BB13C333B80182207E0694B1B789D07DC
:1042E00040F1BE803C233B801022664B83F8352092
:1042F00059E099F80030DC0740F1B280002386F8DD
:1043000025305F4B10221A7001F038FEA8E0388883
:1043100008B1FFF7E3F895F8353013F001030FD03B
:1043200099F80030D80745BF072386F825300623C3
:10433000002346BF86F82630B38386F8253016E082
:1043400099F80020D1071BD5052286F82520B383D4
:1043500086E0388808B1FFF7C1F895F83530DA07FC
:104360000ED5072386F82530002386F82630012055
:10437000FFF7B4F8102389F8003001F0FFFD0DE0DD
:104380003B885BB96CE099F80030DB0768D5072300
:1043900086F82530002386F8263061E0102385F862
:1043A00035303C233B80374B502283F83420237D2B
:1043B000344D85F83030637D05F1180685F83130CD
:1043C000A37D85F83230E37D85F83330237E85F890
:1043D0002C30637E85F82D30A37E85F82E30E37E69
:1043E00085F82F30238A2B85638A6B8594E80F002C
:1043F00086E80F0005F108003146FEF7DDFC94F871
:10440000253003F0100303F0FF022BB1002385F8E1
:10441000373085F8363004E0402385F8362085F8BB
:104420003730184C0623A371174B1B79E3713B8877
:10443000283B1A1263710023227184F83B3084F800
:104440003A30238705F039F9C04320870D4B6022AD
:104450001A7000225A705A80094B00221A7007E025
:104460000A4A002313700A4A3B801370044A1370EF
:1044700003B0BDE8F08F00BFCC200020FC27002057
:10448000F0250020DC2000205C1F0020C61D00203D
:10449000C71D002010B5044640B102F0CBFF044B0D
:1044A0002146BDE81040186803F0A0B910BD00BF58
:1044B0000C010020024B0349186803F0DBB800BF71
:1044C0000C010020954420002DE9F8439846154B37
:1044D00005461868914603F0FBF80446F0B107461C
:1044E00005F110033E4628686968083503C69D42F9
:1044F0003746F7D104F11000002184F8219084F8A8
:10450000228004F051FF04F11800002104F04CFF58
:10451000002384F82030204602F08CFF2046BDE8BE
:10452000F88300BF0C010020024B0146186805F01B
:1045300070BE00BF0C01002070B50C4D0646286807
:1045400003F0ACF8044666B9002070BD2046314641
:10455000102204F0E7FC38B12146286805F029FE56
:104560000446002CF2D1EFE7204670BD0C0100207C
:10457000024B0146186805F033BE00BF0C01002055
:1045800070B5054610200C4603F07CFA0649064635
:1045900005F04AFE30B9304629462246BDE8704053
:1045A00002F010BF70BD00BFD4A8200070B53F4D11
:1045B000286803F073F80446002876D094F8223077
:1045C000042B6DD8DFE803F01D036C33410004F1C8
:1045D00010063046FDF780FD002861D02046FEF72A
:1045E00059FE50B1032384F822303046052104F0EF
:1045F000DBFE002384F8203052E0022384F82230CE
:104600004EE094F82030022B2BD804F118063046E7
:10461000FDF762FD002843D0254B188800283FD1C4
:1046200094F820300146013384F820302CE004F166
:104630001000FDF751FD98B30423002184F82230C7
:1046400084F8201004F1180028E094F82030022BA0
:104650000BD92046FEF71EFE18B1037F0BB9FEF7FB
:10466000F7FD2046FFF716FF1AE004F11806304662
:10467000FDF732FDA0B10E4B188888B9214694F899
:104680002030013384F82030224600F035FA094BFF
:10469000304619694FF47A73B1FBF3F104F084FEEC
:1046A0002868214605F085FD85E770BD0C010020D6
:1046B000C82000205C1F00202DE9F74F6A4C6B4D8D
:1046C000E2792B78FF2A03F12C0909EB040A19F887
:1046D0000470DFF8B88140F0BC80234493F829309F
:1046E000002B40F0B6809AF80430FF2B00F0B18028
:1046F00007F0400303F0FF061BB1237EFF2B00F001
:10470000A8805B48B8F800305A494FF0140E81F881
:1047100000E001937346864600220260019809EB8F
:10472000030C844512DA04EB0C0B9BF8010018B95A
:10473000CEF800200B708CE014F80CC003EBC00323
:10474000DBB2BCF1020F08BF5A46E7E70AF10400EA
:104750000B70CEF80020FEF729FA474B18600028AE
:1047600077D1287820443030FFF7E6FE434C2060B4
:10477000FFF7DAFED4F800900346A246B9F1000F25
:1047800067D03B4A146844B11946A01C0822019323
:1047900004F0C8FB019BC0B200E0204699F822203B
:1047A00027F07F0B5FFA8BFBDAB9002C51D054F85D
:1047B000021F1960616859607EB1012389F82230B7
:1047C0002F4B89F82020D9684FF47A7309F1100033
:1047D000B1FBF3F104F0E8FD37E0022389F8223061
:1047E00033E0B90606D428B1012A32D1022389F870
:1047F00022302EE0A4B3214651F8022F1A604A68F5
:104800005A606EB1012389F822301D4B09F1100066
:10481000D9684FF47A73B1FBF3F104F0C5FD04E0FD
:104820001CB110B1022389F82230DAF8003093F875
:10483000213053B1BBF1000F07D11248FEF72AFD1A
:10484000114A106008B1FEF703FDDAF8003083F872
:1048500021B00023A8F800302B7003B0BDE8F08F22
:10486000002EE2D0CEE700BFDC200020C61D0020D5
:10487000840C0020CF1D0020880C0020800C00201C
:104880005C1F0020E42000207C0C0020C8200020B9
:104890002DE9F74F8C4C8D4FE379DFF85482FF2BD5
:1048A00040F00A813B78E21892F83020FF2A00F0AD
:1048B0000381234493F82930002B40F0FD80844E7F
:1048C000844D336014232B7038782A782C30B8F854
:1048D000003002449A425ADAA11848787A4B0028EC
:1048E00000F0EA80A25C012A47D11A8931607AB9C6
:1048F0005A896AB99A895AB9DA894AB91A8A3AB97F
:104900005A8A2AB99B8A1BB9E38A002B00F0D4800B
:104910007148FFF711FEDFF8DCA1CAF8000068B9A2
:10492000336823B16A4653F8020F596803C26946D7
:10493000002202236848FFF7C7FD1EE0FFF7F4FDE1
:1049400083463368594603F102094846082204F0B9
:10495000E9FA50B1D9F80030CBF80030D9F804307A
:10496000CBF80430DAF8003004E0DAF8003093F8DD
:10497000222012B9022283F822203B782A782C3395
:10498000134423445B7802EBC3022A709CE7204463
:104990000430FEF70BF9514B4B4D18609946002837
:1049A00000F08A802B8973B96B8963B9AB8953B9DD
:1049B000EB8943B92B8A33B96B8A23B9AB8A13B914
:1049C000EB8A002B78D0444D2846FEF7EFF82E46B0
:1049D000002871D140F2FF23228BA5F1080E9A42E4
:1049E00005F1100C19D16B8ABBB9AB8AABB9EB8A54
:1049F0009BB92B8B8BB96B8BB3F5807F0DD12B7F44
:104A0000FF2B0AD195E80F008CE80F003B78734428
:104A100030330FCB85E80F0011E0314D2846FEF70B
:104A2000C5F8D9F80030834246D196E80F0085E8F2
:104A30000F003B78234430330FCB86E80F00602211
:104A40002270282262713A22A271FF22E27188222A
:104A5000002384F82820D9F800203B70637063801D
:104A6000237184F829301F4EE02384F82C30931CE6
:104A70001232354618685968083303C593422E46EA
:104A8000F7D1194A022384F8403084F84130136882
:104A90001648C4F8423053680021436006220830AB
:104AA00004F04CFB0023638504F004FEC043502354
:104AB0006085A8F8003003E00023A8F800303B70C0
:104AC00003B0BDE8F08F00BFDC200020C61D002031
:104AD000840C0020CF1D0020E4200020880C002042
:104AE000F42000200C210020D42000201E210020D2
:104AF000C8200020800C00202DE9F041524C534F7B
:104B000000233B70637063803A238046A37160206A
:104B1000FF232070E37199B96183A183E18321842C
:104B200084F82210022001212376607684F8231075
:104B300084F82430537B84F82530D389E3840CE057
:104B40000B4604F1180601F1100E35461868596835
:104B5000083303C573452E46F7D1872384F82830E0
:104B6000002384F82930E3621346394E02F1100E17
:104B7000354618685968083303C573452E46F7D182
:104B8000002626711046304DFEF710F8002843D15C
:104B9000B8F1000F0CD04346083508F110062A463C
:104BA00018685968083303C2B3421546F7D105E0C7
:104BB00005F1080005F11801FEF7FEF82289224BE5
:104BC000244D8AB95A897AB99A896AB9DA895AB95F
:104BD0001A8A4AB95A8A3AB99A8A2AB9DB8A1BB917
:104BE0002B803B70BDE8F081282363713B78012264
:104BF0004033E254184AE0180223437013680A3025
:104C000040F8083C5368002140F8043C062204F0B8
:104C100095FA50232B800CE018236B710D4B40222A
:104C20002E816E81AE81EE812E826E82AE82EE8208
:104C30001A803B7828331C440023638004F03AFD3B
:104C4000C0436080BDE8F081DC200020C61D00204C
:104C50000C210020C8200020D420002008B50448E2
:104C6000FDF754FEBDE808400248FDF74FBE00BF07
:104C7000200100202C01002008B5064800F0CAFFE2
:104C8000054B01221A7000225A70AA229A70DA701B
:104C900008BD00BF894E2000D11D002010B50F4C6B
:104CA0000220A17902F0D4FEA379112B01D0062BAA
:104CB00005D1238D618D9942A8BF194608E03A2B92
:104CC00005BF94F8281094F82930002143EA012107
:104CD0000120BDE8104002F0BBBE00BFDC20002078
:104CE00010B513780446087A83F0020398421DD168
:104CF000487A5378984219D1887A9378984215D196
:104D0000C87AD378984211D1087B137998420DD193
:104D1000487B5379984209D1887B9379984205D191
:104D2000C87BD379984201D103201BE00B890F4A3D
:104D30006BB94B89B3F57F4F09D18B89FE2B06D117
:104D40001368C989022023F8021B13600AE0136864
:104D500051F8080F083343F8080C486843F8040C6E
:104D600013600120A040C0B210BD00BF940C002011
:104D700010B5084C01462378012B08D1A01C08224D
:104D800004F0D0F800280CBF2046002010BD002001
:104D900010BD00BFD11D002008B50146102002F053
:104DA00065FE044B04489B6800219847BDE8084015
:104DB000FBF716BFF0A62000BD4D200010B5084639
:104DC0000C461146FFF7DCFB044B1B6813B19B68D4
:104DD00020469847024B1C6010BD00BFC011002048
:104DE000A80C00202DE9F8434FEA1219B9F10F0F72
:104DF00080461D4602F00F040BD00F2C05D1B9F1EF
:104E0000000F0AD11024274619E0B9F1000F09D08C
:104E100004E00F2C4FF0100900D1102440464A4600
:104E200004F0B2F809EB04020F2A274606DC08EB6F
:104E300009000021C2F1100204F080F9BCB1114D4B
:104E4000C7F110002E6840443146224604F09CF819
:104E5000022C08D1B9F10A0F9FBFFF2388F80B304D
:104E6000FE2388F80C3034442C60BDE8F883B9F197
:104E7000000F05D040462946BDE8F84304F0D2BBF8
:104E8000BDE8F883940C00202DE9F04F8F4F904E31
:104E9000002387B03B703370044602F077FD02F0C8
:104EA00013FD8C4D04212860092002F0D1FD8A4BAE
:104EB00002971B680096A8460BB1FFF7EFFE04A807
:104EC0000CB9864900E0214605F0A9F9844B854ECE
:104ED0001B883E2B40F2FE81D8F800A0824D0AF1DB
:104EE00002032B60009B06F118001B78023301932C
:104EF000019A00230AF80230FFF73AFF20B906F1C1
:104F00000800FFF735FF20B10AF103032B6080246E
:104F100000E0044672783078130943EA0013DBB2EC
:104F2000990841EA8313DBB212F00F0FD9B2DFF810
:104F3000B89100F00F000ED16A4F7F885FB910B9A9
:104F400012F0F00F20D0D9F80030702703F8011BC1
:104F5000C9F8003019E078B912F0F00F0CD12968C7
:104F600023F03F031A43614B0A701B88033121F879
:104F7000023C6827296008E02B68306860271860C9
:104F800003F8041B2B6000E07827B279112A08BFD0
:104F900047F004077B075EBFD9F8003003F8012B08
:104FA000C9F80030F379402B06D0FF2B07D0012B36
:104FB00008D147F001070BE047F0020708E047F08F
:104FC000030705E0D9F8002002F8013BC9F80020EA
:104FD0003289444B82B95A8972B99A8962B9DA899D
:104FE00052B91A8A42B95A8A32B99A8A22B9DB8AE4
:104FF00013B944F0400015E03D48FFF7B9FE3D4BC2
:10500000186088B1019B42781AF80330042043EA03
:105010000213019A36490AF80230374AFFF760FE58
:1050200060F03F00C4B227E048F2FE0332892D4908
:105030009A420CD14B8B53B98B8B43B9CB8B33B981
:10504000042008312C4AFFF74BFE2043EAE7D9F849
:105050000020DFF89CC096460CF1100B634603CB92
:105060005B45CEF80000CEF804109C460EF1080E09
:10507000F4D11D4B10321A60337E1A49FF2BDFF832
:1050800068B040F085804A7E44F0080E022A5FFA3C
:105090008EFE33D14B8B8BBB8B8B7BBBCB8B6BBB9C
:1050A0000B8C5BBB4B8C4BBB8B8C3BBB91F826308A
:1050B00023BBD9F8003091F8272044F00B0003F807
:1050C000012BC4B2C9F80030A0E000BFD01D002001
:1050D000DB1D0020A00C0020C0110020D4A820005F
:1050E000C8200020DC200020940C0020DE200020BE
:1050F000E42000208C0C0020D4200020718B9A4BDF
:1051000089BB998B79BBD98BA9B9198C99B9598C61
:1051100089B993F8241071B9296844F00A00C4B21F
:10512000084600F8012B33F8252F043121F8032C11
:105130009B78837015E0F18B8B4BA1B9198C91B9D9
:1051400093F8221079B9296844F00900C4B20846DE
:1051500000F8012B53F8232F063141F8052C1B7959
:105160000371296052E0DBF80020DFF814C2144616
:105170000CF11009634603CB4B45206061609C46EF
:1051800004F10804F6D11032CBF8002074463DE05B
:1051900001F118000391FFF7EBFD744B0246186014
:1051A000039960B1019B44F004041AF8030053789A
:1051B000019A0343E4B20AF8023000200AE048F200
:1051C000FE030A8B9A420CD14B8B53B98B8B43B99C
:1051D000CB8B33B9183104AAFFF782FD2043C4B248
:1051E00014E0DBF80020DFF898C196460CF11009B6
:1051F000634603CB4B45CEF80000CEF804109C4626
:105200000EF1080EF4D15A4B10321A60029A28237C
:105210001370B3795449112B50D14FF2B0030A8D5A
:1052200052BA92B222F00F0080B2984215D14B8D43
:105230005BBA23F00F031B041B0C83420DD12868BB
:10524000F32303704B8D1A0A0B8D1B0A02EB031319
:1052500003F5AA634370831C26E0738D42495BBA51
:1052600003F47F43B3F5704F09D12B68F1221A7014
:105270000A8DA3F801204A8D120ADA700CE002F4BC
:105280007F42B2F5704F2B6808D1F2221A700A8D56
:10529000120A5A704A8D5A80043305E0F0221A70BF
:1052A000886A053343F8040C2B60324B1A882B684C
:1052B00023F8022B029A2B6030231370009BD8F83E
:1052C00000201B78D75413445C70DBF800309B1A25
:1052D000009A1BE03546D8F8002041231370009B4C
:1052E00006F128071C78631CDBB213442A4603CA64
:1052F000BA4218605960154603F10803F6D1009BC5
:1053000029341C70029B029A1B78283310201370DA
:105310000DEB000102F0AAFB174B184F1B689847D2
:1053200030EA200028BF1520029A00993B881478A3
:1053300091F800B0C0F17D051A1BCBEB05018A4244
:10534000DFF840A0DFF8409040F3C6800193C0F141
:10535000780602F0DBF8019B93FBF6F301339842E9
:1053600014DC0020C8E000BFDC2000208C0C0020F2
:10537000940C00200A210020C4A62000C820002090
:10538000F4200020D01D0020DB1D0020D8F80030C4
:1053900099F8004019462246181D019303F06AFE51
:1053A0003A88019B6FEA82426FEA9242C2F3072277
:1053B0001A703A8852495A700A880434E4B2DA7092
:1053C000100A0132DFF84CC10A802D1B9AF8001038
:1053D00025F00705DFF838B19870614418192A469E
:1053E000CDF804C089F80040CBF8005003F0CCFDA4
:1053F000281980B202F062FA02F08EF8DDF804C0DB
:10540000054664460028ACD004A8FFF7C5FC284632
:1054100002F0BAF828463B4D02F0A0F82B68012BA9
:105420009FD0043B012B9CD99AF800A0DBF80030F8
:1054300026F0070653441FFA83FA052389F8003043
:10544000314BCBF800601A683B886FEAC3436FEAC0
:10545000D343C3F3072313703B8853702B4B1B8834
:105460009A4548D2D8F800204FEADA011171DBF8EA
:105470000020CAEB03039342B8BF254AD8F80000C6
:10548000B8BF1360009BDBF800601F78324604EB66
:105490000A01384403F078FDB81980B202F00EFA20
:1054A00002F03AF8064600283FF45BAF04A8FFF785
:1054B00073FC304602F068F8304602F04FF8144BA7
:1054C0001B689A442B681FFA8AFA012B3FF449AFF4
:1054D000043B012BC2D844E7D8F8000031195844E6
:1054E00003F052FD38885844001B80B202F0E6F900
:1054F00004A8FFF751FC012007B0BDE8F08F00BF02
:1055000000170020A80C0020A00C0020C8200020BC
:10551000A40C0020DC2000202DE9F04FA04FA14E6C
:1055200087B000243C70347002F0CEF99E4DB8462E
:105530002860042002F094FA9C4B00B218609C484A
:1055400003F076FFDFF894B2009518B1994BABF8F1
:1055500000401C80009B1B6819785D7845EA012596
:1055600001F0F801C0291AD0E02926D19F7893F8DC
:1055700004A0DB78BBF8004043EA07273378C5F383
:105580000A050533337002F0B3F9204434784FF044
:105590000009041BAC42B4BF0024012494E29F78AC
:1055A000DB78002443EA07273378C5F30A05043380
:1055B00033704FF00109A24686E27E4B00241C8026
:1055C000A14627462346A2462546ABF80040BBF835
:1055D0000020AAB1002D00F09182764B1B88AB42CF
:1055E00040F08C82744B1B88BB4240F087820F20B6
:1055F00002F048FA0146714804F016FED8B97DE27F
:1056000040F213516A1E92B28A4214D81BB1B9F10A
:10561000000F00F07382674B4FF480611D80664B72
:1056200063481F8003F0F2FE0F2002F02BFA0146C0
:10563000624804F0F4FD3778052F00F0CD81009B1F
:105640001968CA5D02F0E003602B40F0AC81B81C21
:105650000F4497F801B00844594B5FFA8BF10E06DE
:10566000186044BF0130186012F0100F0091554EC1
:1056700002F008012FD1D1B9196831F8010FA6F84D
:1056800001008978F170196811F8040B196083081A
:1056900003F00F0141F060013170717803F03003C5
:1056A00043EA801301F00F010B4373702EE018687A
:1056B00060210746317017F8011B03304FEA910E45
:1056C0000EF0300E01F00F014EEA010171703988C1
:1056D000186071801AE001F0FF0791B91968087825
:1056E000C0F3830040F06000307011F801EB778068
:1056F0004FEA9E0000F0300040EA8E107070196092
:1057000004E06023337000237370738002F004039D
:1057100003F0FF0101912B4F2BB929490B6813F8B6
:10572000010BB8710B6012F003020BBF244A264B29
:1057300013689B5C09BF13F8011BFB711360F971BF
:105740001BF0400FCBF301124AD0009B190641BF5A
:105750001549144B09681B7851BF00215B189978D3
:10576000090982B1194B1878012805D15878884267
:105770000CBF1946002100E00021154B19600029DB
:1057800040F0BA8128E11146124B0F209A5C039138
:10579000029202F077F9039903460F4829E000BF0F
:1057A000D01D0020DB1D0020A00C0020900C00204C
:1057B000980C0020FE160020FC160020CD2A0020A8
:1057C000940C0020AC0C00206EA82000D11D0020FD
:1057D0008C0C002087A82000B40C002002170020A9
:1057E000A64B0F209A5C029202F04CF9A4490346A2
:1057F000A448029AFFF7F6FA0BF008000BF0030238
:1058000000F0FF010BF00403B0B1002B4AD19E4B16
:105810001B88ADF81430531E012B9FBF9B490B68AA
:1058200013F8010B0B609A4B98BF8DF815009A5C2A
:10583000984805A9002333E0002B27D0009B1B06C6
:1058400041BF9549954B09681B7851BF0B465B18C2
:10585000997801F00F0392490878012804D148781B
:10586000984218BF002100E000218E4B0091196082
:10587000002900F0B1808C4B102013F802B002F028
:1058800001F9009903460231824808E07B4B102061
:1058900013F802B002F0F6F8794903467D485A46FB
:1058A000FFF7A0FA98F80000784900F1280388F87B
:1058B0000030019B002B56D00B681A7802F0F802DA
:1058C000F02A50D11122BA711A7802F0040E02F0B7
:1058D000F302F03A5FFA8EFE032A7DD8DFE802F089
:1058E000020A1622B3F8012005333A8533F8022C58
:1058F0007A852CE0B3F801203A85DA78A2F5805257
:1059000092B2120242F0F0027A8509E05A78A2F5CA
:10591000805292B2120242F0F0023A855A887A8599
:10592000043314E05A7802331209A2F5756292B278
:10593000120242F0F002328513F8012C02F00F023D
:10594000A2F5756292B2120242F0F00272850B600B
:10595000BEF1000F04D10B6833F8022BFA850B60FF
:10596000303088F800004C4A0B6812689B1A4B4A8A
:10597000137065B901F0BCFF484B1B78C01A98F84A
:1059800000301844283803123B71787104E0A5F107
:1059900028031A123A717B71BA79444B112A1BD130
:1059A0009A889A8518E0412A40F0A8807A1CD2B2E1
:1059B0008B18DFF8F8E003F1280C72461868596874
:1059C000083303C263459646F7D198F8003029376B
:1059D0002833377088F8003001F08AFF2F4E337873
:1059E000834200F28B8001F083FF3378304AC71A7C
:1059F000176040F2145298F800B00BEBCA0A0AEB99
:105A0000070191427AD8244A284811685044194421
:105A10003A4603F0B9FADFF8AC80264E65B1B9F129
:105A2000000F02D032885A4432800CB1358007E032
:105A300032883A44328003E007EB0B02A8F80020DA
:105A400033881BB1B8F800209A4257D1B8F800400B
:105A500019482246154903F097FA184B1C80184C38
:105A60000023A8F800303380236823B1FFF716F92C
:105A700023685B68984700F0F3F83FE072A82000C5
:105A800076A82000B40C00206CA82000940C002004
:105A900078A82000C40C0020A00C0020DB1D0020F2
:105AA000D11D00208C0C002087A82000AC0C002009
:105AB000A40C002002170020DC200020C8200020B9
:105AC000C0110020FE160020BBF8003093B1B9F1E0
:105AD000000F0FD00F2001F0D5FF0146094804F058
